{
  "contractName": "FitSwap",
  "abi": [
    {
      "constant": true,
      "inputs": [
        {
          "name": "",
          "type": "address"
        }
      ],
      "name": "extra_info_list",
      "outputs": [
        {
          "name": "skills",
          "type": "string"
        },
        {
          "name": "avg_rating",
          "type": "uint256"
        },
        {
          "name": "postal_code",
          "type": "uint256"
        },
        {
          "name": "number_of_customers",
          "type": "uint256"
        }
      ],
      "payable": false,
      "stateMutability": "view",
      "type": "function"
    },
    {
      "constant": true,
      "inputs": [
        {
          "name": "",
          "type": "address"
        },
        {
          "name": "",
          "type": "address"
        }
      ],
      "name": "customer_list",
      "outputs": [
        {
          "name": "email",
          "type": "string"
        },
        {
          "name": "password",
          "type": "string"
        },
        {
          "name": "fname",
          "type": "string"
        },
        {
          "name": "lname",
          "type": "string"
        },
        {
          "name": "user_address",
          "type": "address"
        },
        {
          "name": "user_type",
          "type": "uint8"
        },
        {
          "name": "active",
          "type": "uint256"
        }
      ],
      "payable": false,
      "stateMutability": "view",
      "type": "function"
    },
    {
      "constant": true,
      "inputs": [
        {
          "name": "",
          "type": "address"
        }
      ],
      "name": "users_list",
      "outputs": [
        {
          "name": "email",
          "type": "string"
        },
        {
          "name": "password",
          "type": "string"
        },
        {
          "name": "fname",
          "type": "string"
        },
        {
          "name": "lname",
          "type": "string"
        },
        {
          "name": "user_address",
          "type": "address"
        },
        {
          "name": "user_type",
          "type": "uint8"
        },
        {
          "name": "active",
          "type": "uint256"
        }
      ],
      "payable": false,
      "stateMutability": "view",
      "type": "function"
    },
    {
      "constant": false,
      "inputs": [
        {
          "name": "fname",
          "type": "string"
        },
        {
          "name": "lname",
          "type": "string"
        },
        {
          "name": "email",
          "type": "string"
        },
        {
          "name": "password",
          "type": "string"
        },
        {
          "name": "user_type",
          "type": "uint256"
        },
        {
          "name": "postal_code",
          "type": "uint256"
        },
        {
          "name": "skills",
          "type": "string"
        }
      ],
      "name": "register",
      "outputs": [
        {
          "name": "",
          "type": "uint256"
        }
      ],
      "payable": false,
      "stateMutability": "nonpayable",
      "type": "function"
    },
    {
      "constant": true,
      "inputs": [],
      "name": "login",
      "outputs": [
        {
          "name": "",
          "type": "string"
        },
        {
          "name": "",
          "type": "string"
        },
        {
          "name": "",
          "type": "string"
        },
        {
          "name": "",
          "type": "uint256"
        },
        {
          "name": "",
          "type": "uint8"
        },
        {
          "name": "",
          "type": "uint256"
        },
        {
          "name": "",
          "type": "uint256"
        },
        {
          "name": "",
          "type": "uint256"
        },
        {
          "name": "",
          "type": "string"
        }
      ],
      "payable": false,
      "stateMutability": "view",
      "type": "function"
    },
    {
      "constant": false,
      "inputs": [
        {
          "name": "customer_address",
          "type": "address"
        }
      ],
      "name": "addCustomer",
      "outputs": [
        {
          "name": "",
          "type": "uint256"
        }
      ],
      "payable": false,
      "stateMutability": "nonpayable",
      "type": "function"
    },
    {
      "constant": false,
      "inputs": [
        {
          "name": "customer_address",
          "type": "address"
        }
      ],
      "name": "deleteCustomer",
      "outputs": [
        {
          "name": "",
          "type": "uint256"
        }
      ],
      "payable": false,
      "stateMutability": "nonpayable",
      "type": "function"
    },
    {
      "constant": false,
      "inputs": [
        {
          "name": "customer_address",
          "type": "address"
        },
        {
          "name": "rating_value",
          "type": "uint256"
        }
      ],
      "name": "giveCustomerRating",
      "outputs": [
        {
          "name": "",
          "type": "uint256"
        }
      ],
      "payable": false,
      "stateMutability": "nonpayable",
      "type": "function"
    }
  ],
  "bytecode": "0x608060405234801561001057600080fd5b5061237c806100206000396000f30060806040526004361061008e576000357c0100000000000000000000000000000000000000000000000000000000900463ffffffff16806311c9ccf6146100935780632b4d5226146100ea5780637448e28f146101bb57806399bc239f1461042a578063a0c9ca381461048b578063ad973d7414610634578063b34e97e81461068b578063c34e938314610890575b600080fd5b34801561009f57600080fd5b506100d4600480360381019080803573ffffffffffffffffffffffffffffffffffffffff169060200190929190505050610adf565b6040518082815260200191505060405180910390f35b3480156100f657600080fd5b5061012b600480360381019080803573ffffffffffffffffffffffffffffffffffffffff169060200190929190505050610c08565b6040518080602001858152602001848152602001838152602001828103825286818151815260200191508051906020019080838360005b8381101561017d578082015181840152602081019050610162565b50505050905090810190601f1680156101aa5780820380516001836020036101000a031916815260200191505b509550505050505060405180910390f35b3480156101c757600080fd5b5061021c600480360381019080803573ffffffffffffffffffffffffffffffffffffffff169060200190929190803573ffffffffffffffffffffffffffffffffffffffff169060200190929190505050610cd0565b60405180806020018060200180602001806020018873ffffffffffffffffffffffffffffffffffffffff1673ffffffffffffffffffffffffffffffffffffffff16815260200187600181111561026e57fe5b60ff16815260200186815260200185810385528c818151815260200191508051906020019080838360005b838110156102b4578082015181840152602081019050610299565b50505050905090810190601f1680156102e15780820380516001836020036101000a031916815260200191505b5085810384528b818151815260200191508051906020019080838360005b8381101561031a5780820151818401526020810190506102ff565b50505050905090810190601f1680156103475780820380516001836020036101000a031916815260200191505b5085810383528a818151815260200191508051906020019080838360005b83811015610380578082015181840152602081019050610365565b50505050905090810190601f1680156103ad5780820380516001836020036101000a031916815260200191505b50858103825289818151815260200191508051906020019080838360005b838110156103e65780820151818401526020810190506103cb565b50505050905090810190601f1680156104135780820380516001836020036101000a031916815260200191505b509b50505050505050505050505060405180910390f35b34801561043657600080fd5b50610475600480360381019080803573ffffffffffffffffffffffffffffffffffffffff16906020019092919080359060200190929190505050610fac565b6040518082815260200191505060405180910390f35b34801561049757600080fd5b5061061e600480360381019080803590602001908201803590602001908080601f0160208091040260200160405190810160405280939291908181526020018383808284378201915050505050509192919290803590602001908201803590602001908080601f0160208091040260200160405190810160405280939291908181526020018383808284378201915050505050509192919290803590602001908201803590602001908080601f0160208091040260200160405190810160405280939291908181526020018383808284378201915050505050509192919290803590602001908201803590602001908080601f01602080910402602001604051908101604052809392919081815260200183838082843782019150505050505091929192908035906020019092919080359060200190929190803590602001908201803590602001908080601f01602080910402602001604051908101604052809392919081815260200183838082843782019150505050505091929192905050506111da565b6040518082815260200191505060405180910390f35b34801561064057600080fd5b50610675600480360381019080803573ffffffffffffffffffffffffffffffffffffffff16906020019092919050505061147e565b6040518082815260200191505060405180910390f35b34801561069757600080fd5b506106a061161b565b604051808060200180602001806020018a81526020018960018111156106c257fe5b60ff1681526020018881526020018781526020018681526020018060200185810385528e818151815260200191508051906020019080838360005b838110156107185780820151818401526020810190506106fd565b50505050905090810190601f1680156107455780820380516001836020036101000a031916815260200191505b5085810384528d818151815260200191508051906020019080838360005b8381101561077e578082015181840152602081019050610763565b50505050905090810190601f1680156107ab5780820380516001836020036101000a031916815260200191505b5085810383528c818151815260200191508051906020019080838360005b838110156107e45780820151818401526020810190506107c9565b50505050905090810190601f1680156108115780820380516001836020036101000a031916815260200191505b50858103825286818151815260200191508051906020019080838360005b8381101561084a57808201518184015260208101905061082f565b50505050905090810190601f1680156108775780820380516001836020036101000a031916815260200191505b509d505050505050505050505050505060405180910390f35b34801561089c57600080fd5b506108d1600480360381019080803573ffffffffffffffffffffffffffffffffffffffff169060200190929190505050611b00565b60405180806020018060200180602001806020018873ffffffffffffffffffffffffffffffffffffffff1673ffffffffffffffffffffffffffffffffffffffff16815260200187600181111561092357fe5b60ff16815260200186815260200185810385528c818151815260200191508051906020019080838360005b8381101561096957808201518184015260208101905061094e565b50505050905090810190601f1680156109965780820380516001836020036101000a031916815260200191505b5085810384528b818151815260200191508051906020019080838360005b838110156109cf5780820151818401526020810190506109b4565b50505050905090810190601f1680156109fc5780820380516001836020036101000a031916815260200191505b5085810383528a818151815260200191508051906020019080838360005b83811015610a35578082015181840152602081019050610a1a565b50505050905090810190601f168015610a625780820380516001836020036101000a031916815260200191505b50858103825289818151815260200191508051906020019080838360005b83811015610a9b578082015181840152602081019050610a80565b50505050905090810190601f168015610ac85780820380516001836020036101000a031916815260200191505b509b50505050505050505050505060405180910390f35b60006001610aed8333611dcf565b1415610bfe57600260003373ffffffffffffffffffffffffffffffffffffffff1673ffffffffffffffffffffffffffffffffffffffff16815260200190815260200160002060008373ffffffffffffffffffffffffffffffffffffffff1673ffffffffffffffffffffffffffffffffffffffff16815260200190815260200160002060008082016000610b8091906121db565b600182016000610b9091906121db565b600282016000610ba091906121db565b600382016000610bb091906121db565b6004820160006101000a81549073ffffffffffffffffffffffffffffffffffffffff02191690556004820160146101000a81549060ff02191690556005820160009055505060019050610c03565b600090505b919050565b6001602052806000526040600020600091509050806000018054600181600116156101000203166002900480601f016020809104026020016040519081016040528092919081815260200182805460018160011615610100020316600290048015610cb45780601f10610c8957610100808354040283529160200191610cb4565b820191906000526020600020905b815481529060010190602001808311610c9757829003601f168201915b5050505050908060010154908060020154908060030154905084565b600260205281600052604060002060205280600052604060002060009150915050806000018054600181600116156101000203166002900480601f016020809104026020016040519081016040528092919081815260200182805460018160011615610100020316600290048015610d895780601f10610d5e57610100808354040283529160200191610d89565b820191906000526020600020905b815481529060010190602001808311610d6c57829003601f168201915b505050505090806001018054600181600116156101000203166002900480601f016020809104026020016040519081016040528092919081815260200182805460018160011615610100020316600290048015610e275780601f10610dfc57610100808354040283529160200191610e27565b820191906000526020600020905b815481529060010190602001808311610e0a57829003601f168201915b505050505090806002018054600181600116156101000203166002900480601f016020809104026020016040519081016040528092919081815260200182805460018160011615610100020316600290048015610ec55780601f10610e9a57610100808354040283529160200191610ec5565b820191906000526020600020905b815481529060010190602001808311610ea857829003601f168201915b505050505090806003018054600181600116156101000203166002900480601f016020809104026020016040519081016040528092919081815260200182805460018160011615610100020316600290048015610f635780601f10610f3857610100808354040283529160200191610f63565b820191906000526020600020905b815481529060010190602001808311610f4657829003601f168201915b5050505050908060040160009054906101000a900473ffffffffffffffffffffffffffffffffffffffff16908060040160149054906101000a900460ff16908060050154905087565b6000610fb6612223565b60006001610fc48633611dcf565b14156111cd57600160003373ffffffffffffffffffffffffffffffffffffffff1673ffffffffffffffffffffffffffffffffffffffff16815260200190815260200160002060806040519081016040529081600082018054600181600116156101000203166002900480601f0160208091040260200160405190810160405280929190818152602001828054600181600116156101000203166002900480156110ae5780601f10611083576101008083540402835291602001916110ae565b820191906000526020600020905b81548152906001019060200180831161109157829003601f168201915b50505050508152602001600182015481526020016002820154815260200160038201548152505091506001826060015101600160003373ffffffffffffffffffffffffffffffffffffffff1673ffffffffffffffffffffffffffffffffffffffff1681526020019081526020016000206003018190555081606001519050808482600160003373ffffffffffffffffffffffffffffffffffffffff1673ffffffffffffffffffffffffffffffffffffffff16815260200190815260200160002060010154020181151561117d57fe5b04600160003373ffffffffffffffffffffffffffffffffffffffff1673ffffffffffffffffffffffffffffffffffffffff16815260200190815260200160002060010181905550600192506111d2565b600092505b505092915050565b60008060016000803373ffffffffffffffffffffffffffffffffffffffff1673ffffffffffffffffffffffffffffffffffffffff1681526020019081526020016000206005015414156112305760009150611472565b60018514156112425760009050611247565b600190505b60e0604051908101604052808881526020018781526020018a81526020018981526020013373ffffffffffffffffffffffffffffffffffffffff16815260200182600181111561129357fe5b815260200160018152506000803373ffffffffffffffffffffffffffffffffffffffff1673ffffffffffffffffffffffffffffffffffffffff16815260200190815260200160002060008201518160000190805190602001906112f792919061224c565b50602082015181600101908051906020019061131492919061224c565b50604082015181600201908051906020019061133192919061224c565b50606082015181600301908051906020019061134e92919061224c565b5060808201518160040160006101000a81548173ffffffffffffffffffffffffffffffffffffffff021916908373ffffffffffffffffffffffffffffffffffffffff16021790555060a08201518160040160146101000a81548160ff021916908360018111156113ba57fe5b021790555060c08201518160050155905050608060405190810160405280848152602001600081526020018581526020016000815250600160003373ffffffffffffffffffffffffffffffffffffffff1673ffffffffffffffffffffffffffffffffffffffff168152602001908152602001600020600082015181600001908051906020019061144b92919061224c565b50602082015181600101556040820151816002015560608201518160030155905050600191505b50979650505050505050565b6000600161148c8333611dcf565b141561149b5760009050611616565b6114a482611e6d565b600260003373ffffffffffffffffffffffffffffffffffffffff1673ffffffffffffffffffffffffffffffffffffffff16815260200190815260200160002060008473ffffffffffffffffffffffffffffffffffffffff1673ffffffffffffffffffffffffffffffffffffffff168152602001908152602001600020600082015181600001908051906020019061153c92919061224c565b50602082015181600101908051906020019061155992919061224c565b50604082015181600201908051906020019061157692919061224c565b50606082015181600301908051906020019061159392919061224c565b5060808201518160040160006101000a81548173ffffffffffffffffffffffffffffffffffffffff021916908373ffffffffffffffffffffffffffffffffffffffff16021790555060a08201518160040160146101000a81548160ff021916908360018111156115ff57fe5b021790555060c08201518160050155905050600190505b919050565b6060806060600080600080600060606116326122cc565b61163a612223565b6000803373ffffffffffffffffffffffffffffffffffffffff1673ffffffffffffffffffffffffffffffffffffffff16815260200190815260200160002060e06040519081016040529081600082018054600181600116156101000203166002900480601f01602080910402602001604051908101604052809291908181526020018280546001816001161561010002031660029004801561171d5780601f106116f25761010080835404028352916020019161171d565b820191906000526020600020905b81548152906001019060200180831161170057829003601f168201915b50505050508152602001600182018054600181600116156101000203166002900480601f0160208091040260200160405190810160405280929190818152602001828054600181600116156101000203166002900480156117bf5780601f10611794576101008083540402835291602001916117bf565b820191906000526020600020905b8154815290600101906020018083116117a257829003601f168201915b50505050508152602001600282018054600181600116156101000203166002900480601f0160208091040260200160405190810160405280929190818152602001828054600181600116156101000203166002900480156118615780601f1061183657610100808354040283529160200191611861565b820191906000526020600020905b81548152906001019060200180831161184457829003601f168201915b50505050508152602001600382018054600181600116156101000203166002900480601f0160208091040260200160405190810160405280929190818152602001828054600181600116156101000203166002900480156119035780601f106118d857610100808354040283529160200191611903565b820191906000526020600020905b8154815290600101906020018083116118e657829003601f168201915b505050505081526020016004820160009054906101000a900473ffffffffffffffffffffffffffffffffffffffff1673ffffffffffffffffffffffffffffffffffffffff1673ffffffffffffffffffffffffffffffffffffffff1681526020016004820160149054906101000a900460ff16600181111561198057fe5b600181111561198b57fe5b81526020016005820154815250509150600160003373ffffffffffffffffffffffffffffffffffffffff1673ffffffffffffffffffffffffffffffffffffffff16815260200190815260200160002060806040519081016040529081600082018054600181600116156101000203166002900480601f016020809104026020016040519081016040528092919081815260200182805460018160011615610100020316600290048015611a7f5780601f10611a5457610100808354040283529160200191611a7f565b820191906000526020600020905b815481529060010190602001808311611a6257829003601f168201915b50505050508152602001600182015481526020016002820154815260200160038201548152505090508160400151826060015183600001518460c001518560a0015185602001518660600151876040015188600001518898508797508696508090509a509a509a509a509a509a509a509a509a505050909192939495969798565b6000602052806000526040600020600091509050806000018054600181600116156101000203166002900480601f016020809104026020016040519081016040528092919081815260200182805460018160011615610100020316600290048015611bac5780601f10611b8157610100808354040283529160200191611bac565b820191906000526020600020905b815481529060010190602001808311611b8f57829003601f168201915b505050505090806001018054600181600116156101000203166002900480601f016020809104026020016040519081016040528092919081815260200182805460018160011615610100020316600290048015611c4a5780601f10611c1f57610100808354040283529160200191611c4a565b820191906000526020600020905b815481529060010190602001808311611c2d57829003601f168201915b505050505090806002018054600181600116156101000203166002900480601f016020809104026020016040519081016040528092919081815260200182805460018160011615610100020316600290048015611ce85780601f10611cbd57610100808354040283529160200191611ce8565b820191906000526020600020905b815481529060010190602001808311611ccb57829003601f168201915b505050505090806003018054600181600116156101000203166002900480601f016020809104026020016040519081016040528092919081815260200182805460018160011615610100020316600290048015611d865780601f10611d5b57610100808354040283529160200191611d86565b820191906000526020600020905b815481529060010190602001808311611d6957829003601f168201915b5050505050908060040160009054906101000a900473ffffffffffffffffffffffffffffffffffffffff16908060040160149054906101000a900460ff16908060050154905087565b60006001600260008473ffffffffffffffffffffffffffffffffffffffff1673ffffffffffffffffffffffffffffffffffffffff16815260200190815260200160002060008573ffffffffffffffffffffffffffffffffffffffff1673ffffffffffffffffffffffffffffffffffffffff168152602001908152602001600020600501541415611e625760019050611e67565b600090505b92915050565b611e756122cc565b6000808373ffffffffffffffffffffffffffffffffffffffff1673ffffffffffffffffffffffffffffffffffffffff16815260200190815260200160002060e06040519081016040529081600082018054600181600116156101000203166002900480601f016020809104026020016040519081016040528092919081815260200182805460018160011615610100020316600290048015611f585780601f10611f2d57610100808354040283529160200191611f58565b820191906000526020600020905b815481529060010190602001808311611f3b57829003601f168201915b50505050508152602001600182018054600181600116156101000203166002900480601f016020809104026020016040519081016040528092919081815260200182805460018160011615610100020316600290048015611ffa5780601f10611fcf57610100808354040283529160200191611ffa565b820191906000526020600020905b815481529060010190602001808311611fdd57829003601f168201915b50505050508152602001600282018054600181600116156101000203166002900480601f01602080910402602001604051908101604052809291908181526020018280546001816001161561010002031660029004801561209c5780601f106120715761010080835404028352916020019161209c565b820191906000526020600020905b81548152906001019060200180831161207f57829003601f168201915b50505050508152602001600382018054600181600116156101000203166002900480601f01602080910402602001604051908101604052809291908181526020018280546001816001161561010002031660029004801561213e5780601f106121135761010080835404028352916020019161213e565b820191906000526020600020905b81548152906001019060200180831161212157829003601f168201915b505050505081526020016004820160009054906101000a900473ffffffffffffffffffffffffffffffffffffffff1673ffffffffffffffffffffffffffffffffffffffff1673ffffffffffffffffffffffffffffffffffffffff1681526020016004820160149054906101000a900460ff1660018111156121bb57fe5b60018111156121c657fe5b81526020016005820154815250509050919050565b50805460018160011615610100020316600290046000825580601f106122015750612220565b601f01602090049060005260206000209081019061221f919061232b565b5b50565b608060405190810160405280606081526020016000815260200160008152602001600081525090565b828054600181600116156101000203166002900490600052602060002090601f016020900481019282601f1061228d57805160ff19168380011785556122bb565b828001600101855582156122bb579182015b828111156122ba57825182559160200191906001019061229f565b5b5090506122c8919061232b565b5090565b60e06040519081016040528060608152602001606081526020016060815260200160608152602001600073ffffffffffffffffffffffffffffffffffffffff1681526020016000600181111561231e57fe5b8152602001600081525090565b61234d91905b80821115612349576000816000905550600101612331565b5090565b905600a165627a7a723058204fe71fc5576b47aee8d0939957bba88753c9ebddafdf9e8b3bacc27236a1b9aa0029",
  "source": "pragma solidity ^0.4.0;\n\ncontract FitSwap{\n    //state variables\n    struct User {\n        string email;\n        string password;\n        string fname;\n        string lname;\n        address user_address;\n        UserType user_type;\n        uint active;\n    }\n    \n    struct ExtraInfo {\n        string skills;\n        uint avg_rating;\n        uint postal_code;\n        uint number_of_customers;\n    }\n    enum UserType {NINJA, NOVICE}\n    \n    mapping(address => User) public users_list;\n    mapping(address => ExtraInfo) public extra_info_list;\n    mapping(address => mapping(address => User)) public customer_list;\n\n    function register(string fname, string lname, string email, string password, uint user_type, uint postal_code, string skills) public returns(uint) {\n        UserType uType;\n        if(users_list[msg.sender].active == 1) { \n            return 0;\n        }\n        if(user_type == 1){\n            uType = UserType.NINJA;\n        }\n        else{\n            uType = UserType.NOVICE;\n\n        }\n        users_list[msg.sender] = User(email, password,fname, lname, msg.sender, uType, 1);\n        extra_info_list[msg.sender] = ExtraInfo(skills,0,postal_code,0);\n        return 1;\n    }\n\n    function login() public view returns (string, string, string, uint, UserType, uint, uint, uint, string){\n        User memory user_data = users_list[msg.sender];\n        ExtraInfo memory extra = extra_info_list[msg.sender];\n        return (user_data.fname, user_data.lname, user_data.email, user_data.active, user_data.user_type, extra.avg_rating, extra.number_of_customers, extra.postal_code, extra.skills);\n    }\n\n    function customerExists(address customer_address, address user_address) private view returns (uint){\n        if(customer_list[user_address][customer_address].active == 1){\n            return 1;\n        }\n        return 0;\n    }\n\n\n    function getUserFromAddress(address user_a) private view returns (User){\n        return (users_list[user_a]);\n    }\n\n    function addCustomer(address customer_address) public returns(uint){\n        if(customerExists(customer_address, msg.sender) == 1){\n            return 0;\n        }\n        customer_list[msg.sender][customer_address] = getUserFromAddress(customer_address);\n        return 1;\n    }\n\n\n    function deleteCustomer(address customer_address) public returns(uint){\n        if(customerExists(customer_address, msg.sender) == 1){\n            delete customer_list[msg.sender][customer_address];\n            return 1;\n        } \n       return 0;\n    }\n\n     function giveCustomerRating(address customer_address, uint rating_value) public returns (uint){\n        if(customerExists(customer_address, msg.sender) == 1){\n            ExtraInfo memory extra = extra_info_list[msg.sender];\n            extra_info_list[msg.sender].number_of_customers = extra.number_of_customers + 1;\n            uint no_cust = extra.number_of_customers;\n            extra_info_list[msg.sender].avg_rating = (extra_info_list[msg.sender].avg_rating*no_cust + rating_value)/no_cust;\n            return 1;\n        } \n        return 0;\n    }\n\n}\n",
  "sourcePath": "/home/adinesh/Desktop/blockchain/fitswap/contracts/FitSwap.sol",
  "compiler": {
    "name": "solc",
    "version": "0.4.24+commit.e67f0147.Emscripten.clang"
  },
  "schemaVersion": "2.0.1",
  "updatedAt": "2018-08-05T11:45:54.012Z"
}